{
  "contractName": "DStorage",
  "abi": [
    {
      "inputs": [],
      "stateMutability": "nonpayable",
      "type": "constructor"
    },
    {
      "anonymous": false,
      "inputs": [
        {
          "indexed": false,
          "internalType": "uint256",
          "name": "fileId",
          "type": "uint256"
        },
        {
          "indexed": false,
          "internalType": "string",
          "name": "fileHash",
          "type": "string"
        },
        {
          "indexed": false,
          "internalType": "string",
          "name": "fileType",
          "type": "string"
        },
        {
          "indexed": false,
          "internalType": "string",
          "name": "fileName",
          "type": "string"
        },
        {
          "indexed": false,
          "internalType": "string",
          "name": "fileDescription",
          "type": "string"
        },
        {
          "indexed": false,
          "internalType": "uint256",
          "name": "uploadTime",
          "type": "uint256"
        },
        {
          "indexed": false,
          "internalType": "address payable",
          "name": "uploader",
          "type": "address"
        }
      ],
      "name": "FileEvent",
      "type": "event"
    },
    {
      "inputs": [
        {
          "internalType": "uint256",
          "name": "",
          "type": "uint256"
        }
      ],
      "name": "files",
      "outputs": [
        {
          "internalType": "uint256",
          "name": "fileId",
          "type": "uint256"
        },
        {
          "internalType": "string",
          "name": "fileHash",
          "type": "string"
        },
        {
          "internalType": "string",
          "name": "fileType",
          "type": "string"
        },
        {
          "internalType": "string",
          "name": "fileName",
          "type": "string"
        },
        {
          "internalType": "string",
          "name": "fileDescription",
          "type": "string"
        },
        {
          "internalType": "uint256",
          "name": "uploadTime",
          "type": "uint256"
        },
        {
          "internalType": "address payable",
          "name": "uploader",
          "type": "address"
        }
      ],
      "stateMutability": "view",
      "type": "function",
      "constant": true
    },
    {
      "inputs": [
        {
          "internalType": "string",
          "name": "_fileHash",
          "type": "string"
        },
        {
          "internalType": "string",
          "name": "_fileType",
          "type": "string"
        },
        {
          "internalType": "string",
          "name": "_filename",
          "type": "string"
        },
        {
          "internalType": "string",
          "name": "_fileDescription",
          "type": "string"
        }
      ],
      "name": "uploadFiles",
      "outputs": [],
      "stateMutability": "nonpayable",
      "type": "function"
    }
  ],
  "bytecode": "0x60806040526000805534801561001457600080fd5b50610de7806100246000396000f3fe608060405234801561001057600080fd5b50600436106100365760003560e01c80636bd31c111461003b578063f4c714b414610057575b600080fd5b6100556004803603810190610050919061081f565b61008d565b005b610071600480360381019061006c919061092c565b6103a0565b6040516100849796959493929190610a31565b60405180910390f35b600073ffffffffffffffffffffffffffffffffffffffff163373ffffffffffffffffffffffffffffffffffffffff1614156100fd576040517f08c379a00000000000000000000000000000000000000000000000000000000081526004016100f490610b08565b60405180910390fd5b6000845111610141576040517f08c379a000000000000000000000000000000000000000000000000000000000815260040161013890610b74565b60405180910390fd5b6000835111610185576040517f08c379a000000000000000000000000000000000000000000000000000000000815260040161017c90610be0565b60405180910390fd5b60008251116101c9576040517f08c379a00000000000000000000000000000000000000000000000000000000081526004016101c090610c4c565b60405180910390fd5b600081511161020d576040517f08c379a000000000000000000000000000000000000000000000000000000000815260040161020490610cb8565b60405180910390fd5b60008081548092919061021f90610d07565b91905055506040518060e0016040528060005481526020018581526020018481526020018381526020018281526020014281526020013373ffffffffffffffffffffffffffffffffffffffff1681525060016000805481526020019081526020016000206000820151816000015560208201518160010190805190602001906102a9929190610622565b5060408201518160020190805190602001906102c6929190610622565b5060608201518160030190805190602001906102e3929190610622565b506080820151816004019080519060200190610300929190610622565b5060a0820151816005015560c08201518160060160006101000a81548173ffffffffffffffffffffffffffffffffffffffff021916908373ffffffffffffffffffffffffffffffffffffffff1602179055509050507faef5780fd32de45e01e632201e3e219afa0b3aa4ec97e531531bcd62e5eaa9c36000548585858542336040516103929796959493929190610a31565b60405180910390a150505050565b60016020528060005260406000206000915090508060000154908060010180546103c990610d7f565b80601f01602080910402602001604051908101604052809291908181526020018280546103f590610d7f565b80156104425780601f1061041757610100808354040283529160200191610442565b820191906000526020600020905b81548152906001019060200180831161042557829003601f168201915b50505050509080600201805461045790610d7f565b80601f016020809104026020016040519081016040528092919081815260200182805461048390610d7f565b80156104d05780601f106104a5576101008083540402835291602001916104d0565b820191906000526020600020905b8154815290600101906020018083116104b357829003601f168201915b5050505050908060030180546104e590610d7f565b80601f016020809104026020016040519081016040528092919081815260200182805461051190610d7f565b801561055e5780601f106105335761010080835404028352916020019161055e565b820191906000526020600020905b81548152906001019060200180831161054157829003601f168201915b50505050509080600401805461057390610d7f565b80601f016020809104026020016040519081016040528092919081815260200182805461059f90610d7f565b80156105ec5780601f106105c1576101008083540402835291602001916105ec565b820191906000526020600020905b8154815290600101906020018083116105cf57829003601f168201915b5050505050908060050154908060060160009054906101000a900473ffffffffffffffffffffffffffffffffffffffff16905087565b82805461062e90610d7f565b90600052602060002090601f0160209004810192826106505760008555610697565b82601f1061066957805160ff1916838001178555610697565b82800160010185558215610697579182015b8281111561069657825182559160200191906001019061067b565b5b5090506106a491906106a8565b5090565b5b808211156106c15760008160009055506001016106a9565b5090565b6000604051905090565b600080fd5b600080fd5b600080fd5b600080fd5b6000601f19601f8301169050919050565b7f4e487b7100000000000000000000000000000000000000000000000000000000600052604160045260246000fd5b61072c826106e3565b810181811067ffffffffffffffff8211171561074b5761074a6106f4565b5b80604052505050565b600061075e6106c5565b905061076a8282610723565b919050565b600067ffffffffffffffff82111561078a576107896106f4565b5b610793826106e3565b9050602081019050919050565b82818337600083830152505050565b60006107c26107bd8461076f565b610754565b9050828152602081018484840111156107de576107dd6106de565b5b6107e98482856107a0565b509392505050565b600082601f830112610806576108056106d9565b5b81356108168482602086016107af565b91505092915050565b60008060008060808587031215610839576108386106cf565b5b600085013567ffffffffffffffff811115610857576108566106d4565b5b610863878288016107f1565b945050602085013567ffffffffffffffff811115610884576108836106d4565b5b610890878288016107f1565b935050604085013567ffffffffffffffff8111156108b1576108b06106d4565b5b6108bd878288016107f1565b925050606085013567ffffffffffffffff8111156108de576108dd6106d4565b5b6108ea878288016107f1565b91505092959194509250565b6000819050919050565b610909816108f6565b811461091457600080fd5b50565b60008135905061092681610900565b92915050565b600060208284031215610942576109416106cf565b5b600061095084828501610917565b91505092915050565b610962816108f6565b82525050565b600081519050919050565b600082825260208201905092915050565b60005b838110156109a2578082015181840152602081019050610987565b838111156109b1576000848401525b50505050565b60006109c282610968565b6109cc8185610973565b93506109dc818560208601610984565b6109e5816106e3565b840191505092915050565b600073ffffffffffffffffffffffffffffffffffffffff82169050919050565b6000610a1b826109f0565b9050919050565b610a2b81610a10565b82525050565b600060e082019050610a46600083018a610959565b8181036020830152610a5881896109b7565b90508181036040830152610a6c81886109b7565b90508181036060830152610a8081876109b7565b90508181036080830152610a9481866109b7565b9050610aa360a0830185610959565b610ab060c0830184610a22565b98975050505050505050565b7f6e6f7420612076616c6964206164647265737300000000000000000000000000600082015250565b6000610af2601383610973565b9150610afd82610abc565b602082019050919050565b60006020820190508181036000830152610b2181610ae5565b9050919050565b7f6e6f7420612076616c69642066696c6548617368000000000000000000000000600082015250565b6000610b5e601483610973565b9150610b6982610b28565b602082019050919050565b60006020820190508181036000830152610b8d81610b51565b9050919050565b7f6e6f7420612076616c69642066696c6554797065000000000000000000000000600082015250565b6000610bca601483610973565b9150610bd582610b94565b602082019050919050565b60006020820190508181036000830152610bf981610bbd565b9050919050565b7f6e6f7420612076616c69642066696c654e616d65000000000000000000000000600082015250565b6000610c36601483610973565b9150610c4182610c00565b602082019050919050565b60006020820190508181036000830152610c6581610c29565b9050919050565b7f6e6f7420612076616c69642066696c654465736372697074696f6e0000000000600082015250565b6000610ca2601b83610973565b9150610cad82610c6c565b602082019050919050565b60006020820190508181036000830152610cd181610c95565b9050919050565b7f4e487b7100000000000000000000000000000000000000000000000000000000600052601160045260246000fd5b6000610d12826108f6565b91507fffffffffffffffffffffffffffffffffffffffffffffffffffffffffffffffff821415610d4557610d44610cd8565b5b600182019050919050565b7f4e487b7100000000000000000000000000000000000000000000000000000000600052602260045260246000fd5b60006002820490506001821680610d9757607f821691505b60208210811415610dab57610daa610d50565b5b5091905056fea2646970667358221220db6343ec296f414589121cc077cb61d64f070e7f9fc95ecd78439bdce0b827ad64736f6c634300080c0033",
  "immutableReferences": {},
  "source": "// SPDX-License-Identifier: Vishal\r\npragma solidity ^0.8.0;\r\n\r\ncontract DStorage{\r\n   uint fileCount=0;\r\n\r\n    struct File{\r\n        uint fileId;\r\n        string fileHash;\r\n        string fileType;\r\n        string fileName;\r\n        string fileDescription;\r\n        uint uploadTime;\r\n        address payable uploader;\r\n    }\r\n\r\n    mapping(uint=>File) public files;\r\n    event FileEvent(\r\n        uint fileId,\r\n        string fileHash,\r\n        string fileType,\r\n        string fileName,\r\n        string fileDescription,\r\n        uint uploadTime,\r\n        address payable uploader\r\n    );\r\n    constructor() {\r\n      \r\n    }\r\n\r\n    function uploadFiles(string memory _fileHash,\r\n    string memory _fileType,\r\n    string memory _filename,\r\n    string memory _fileDescription\r\n    ) public{\r\n        require(msg.sender!=address(0),\"not a valid address\");\r\n        require(bytes(_fileHash).length>0,\"not a valid fileHash\");\r\n        require(bytes(_fileType).length>0,\"not a valid fileType\");\r\n        require(bytes(_filename).length>0,\"not a valid fileName\");\r\n        require(bytes(_fileDescription).length>0,\"not a valid fileDescription\");\r\n      \r\n        fileCount++;\r\n\r\n        files[fileCount]=File(fileCount,_fileHash,_fileType,_filename,_fileDescription,\r\n        block.timestamp,payable(msg.sender));\r\n        \r\n        emit FileEvent(fileCount,_fileHash,_fileType,_filename,_fileDescription,\r\n        block.timestamp,payable(msg.sender));\r\n    }\r\n}\r\n",
  "sourcePath": "C:\\Users\\user\\Desktop\\Projects\\Blockchain\\Dropbox\\dropbox\\contracts\\DStorge.sol",
  "compiler": {
    "name": "solc",
    "version": "0.8.12+commit.f00d7308.Emscripten.clang"
  },
  "schemaVersion": "3.4.6",
  "updatedAt": "2022-06-18T06:07:58.256Z",
  "networkType": "ethereum",
  "devdoc": {
    "kind": "dev",
    "methods": {},
    "version": 1
  },
  "userdoc": {
    "kind": "user",
    "methods": {},
    "version": 1
  }
}